:020000040000FA
:1000000025000504C00C020067040400080C06006B
:100010004604060426046D0039090E0C2400060C63
:100020002A0004006607110AAD0243061A0A660791
:100030001C0A140AFE0C2D000D0220000D026D0298
:100040004306E000A4026D00EA02110AFF0C6209F7
:100050000E0C2C00EC022A0A4309500930090D0A43
:10006000FF0C29006607300AE902320A6606360AE2
:1000700001080E0C2400080C2900800C2000A402AA
:10008000E9023E0A01080E023400100235000E0299
:10009000300011022E001502310012023300010857
:1000A0000E0C2400040C2900000262090E0C2C0026
:1000B000EC02580A0E0C2C00EC025C0AA402E902C5
:1000C000540A01082B006B0246050E0C2C00EC02B2
:1000D000670A080C28002B0303064605030746049D
:1000E0000E0C2C00EC02720AE8026B0A46040108AE
:021FFE00E70FEB
:00000001FF
